:020000040800F2
:10000000000400204902000823020008250200081D
:1000100027020008290200082B0200080000000047
:100020000000000000000000000000002D02000899
:100030002F0200080000000031020008330200080F
:1000400065020008690200086D02000871020008DC
:1000500075020008790200087D020008810200088C
:1000600085020008890200088D020008910200083C
:1000700095020008990200089D020008A1020008EC
:10008000A5020008A9020008AD020008B10200089C
:10009000B5020008B9020008BD020008C10200084C
:1000A000C5020008C9020008CD020008D1020008FC
:1000B000D5020008D9020008DD020008E1020008AC
:1000C000E5020008E9020008ED020008F10200085C
:1000D000F5020008F9020008FD020008010300080B
:1000E00005030008090300080D03000811030008B8
:1000F0001503000839483A4A82B0016841F480711A
:100100000160816811408160364A016811400160D8
:10011000016821F480210160816821F47D01816002
:100120000021C16001910091016841F480310160BA
:10013000016801F4003100910199491C0191009975
:1001400019B90199B1F5A04FF2D10168490C01F03C
:10015000010100910099012939D123490A6842F02F
:1001600004020A600A6842F002020A600A6842F069
:1001700001020A604FF40062416A41F0805141621D
:100180001A490A604A68D206FCD481688160816895
:10019000816081688160816821F47D01816081686E
:1001A00041F411018160016841F0807101600168D2
:1001B0008901FCD58168890889008160816841F0E6
:1001C00003018160816801F00C010C29FAD14FF024
:1001D00000600749086002B0704700000038024024
:1001E0000CC0FF88FEFFFEEE003C024000700040A5
:1001F00008ED00E000F00BF8002801D0C046C04632
:100200000020C046C04600F004F800F003F80120CA
:100210007047FEE700F000B80746384600F00AF8DD
:10022000FBE77047FEE7FEE7FEE7FEE77047704733
:100230007047704780B5C046C046024A110018207A
:10024000ABBEFBE72600020001488047014800479B
:10025000F500000859020008C046C046C046C04626
:10026000FFF7C8FFFFF7FEBFFFF7FEBFFFF7FEBFB8
:10027000FFF7FEBFFFF7FEBFFFF7FEBFFFF7FEBFB2
:10028000FFF7FEBFFFF7FEBFFFF7FEBFFFF7FEBFA2
:10029000FFF7FEBFFFF7FEBFFFF7FEBFFFF7FEBF92
:1002A000FFF7FEBFFFF7FEBFFFF7FEBFFFF7FEBF82
:1002B000FFF7FEBFFFF7FEBFFFF7FEBFFFF7FEBF72
:1002C000FFF7FEBFFFF7FEBFFFF7FEBFFFF7FEBF62
:1002D000FFF7FEBFFFF7FEBFFFF7FEBFFFF7FEBF52
:1002E000FFF7FEBFFFF7FEBFFFF7FEBFFFF7FEBF42
:1002F000FFF7FEBFFFF7FEBFFFF7FEBFFFF7FEBF32
:10030000FFF7FEBFFFF7FEBFFFF7FEBFFFF7FEBF21
:08031000FFF7FEBFFFF7FEBF7F
:040000050800025994
:00000001FF
