:020000040800F2
:10000000500800202D4F00082D4200082F42000804
:100010003142000833420008354200080000000069
:10002000000000000000000000000000374200084F
:1000300039420008000000003B4200083D42000831
:10004000554F0008594F00085D4F0008614F0008E8
:10005000654F0008694F00086D4F0008714F000898
:10006000754F00081941000845410008794F000804
:100070007D4F0008814F0008854F0008894F000818
:100080008D4F0008914F0008954F0008994F0008C8
:100090009D4F0008A14F0008A54F0008A94F000878
:1000A000AD4F0008B14F0008B54F0008B94F000828
:1000B000BD4F0008C14F0008C54F0008C94F0008D8
:1000C000CD4F0008D14F0008D54F0008D94F000888
:1000D000DD4F000859410008AF410008E14F00081A
:1000E000E54F0008E94F0008ED4F0008F14F000808
:1000F000F54F00082DE9F04F80460FF21C60A5B0C7
:1001000017461D46D0E90023CDE9122300200491B3
:100110000D900DF1500A6FF0004900E0E719002042
:10012000ADF8020012AB4FF0FF3239460DF102007C
:1001300001F08BF80446012C04DA3878441EA441FF
:10014000E443E40FBDF8020025280CBFA4F1010B25
:10015000A346BBF1010F0EDB3E4616F8011B0498C7
:10016000C0470028049000F0D2820D98401CBBF1DB
:10017000010B0D90F1D1BDF80200252807D1002018
:100180000790089009900A900B900C9005E00028C9
:10019000C4D10D98BDE240F0010017F8011F2029DD
:1001A000F9D023290DD02B2904D02D2906D03029B0
:1001B0000AD00CE040F0020080B2EEE740F004000C
:1001C000FAE740F00800F7E740F01000F4E72A29CA
:1001D0000ED12968296051F8042B2960002A0F925A
:1001E00004D5514240F004000F9180B27F1C11E011
:1001F00000210F9109E00F99494505D001EB8103DA
:1002000002EB430130390F917F1C3A78A2F13001A3
:100210000A29F0D339782E2903D04FF0FF310E91FF
:100220001DE017F8011F2A2907D1296829607F1CC2
:1002300051F8042B29600E9211E000210E9109E083
:100240000E99494505D001EB810302EB430130399A
:100250000E917F1C3A78A2F130010A29F0D3ADF853
:1002600040000FF2BC40397801F000F808B117F8EF
:10027000010B8DF842009DF84200682802BF3978D2
:100280006829622005D06C2804BF38786C2803D117
:1002900071208DF842007F1C14A8069017F8014BBE
:1002A000B4F125002AD01C3800F0CB80001F0228B2
:1002B00040F2C780133800F0EC80093800F0C180AC
:1002C000801E00F05381401E00F02C81401E022849
:1002D00040F2B780001F00F02581401F00F08280AF
:1002E000401E00F0D680401E2CD0C01E0BD0801EB9
:1002F00000F0CF80C01E00F0CC805AE125208DF8A0
:10030000500001205EE19DF842006C2828682860BA
:1003100014D050F8046B286005960E9C002C04D570
:10032000304600F0AFFF044606E02246002130468A
:1003300000F0C4FF00B1841B089444E150F8042B82
:1003400028602FE1296829603C2451F8040B2960BA
:100350000021CDE9020114A80590DDE90201069E05
:1003600011B908B90E9AB2B10206120FA0EB02122F
:100370003032D2B2631E3A2AA8BF2732000940EABF
:10038000017009099A5508BF00281C4603D0059A38
:10039000A3199A42E8D3A0190590C4F13C010E9824
:1003A0000891814209DA401A0A904FF6EF71BDF8C0
:1003B00040000840ADF8400005E1002840F103810D
:1003C0009DF8400000F01400102840F0FC800F98C9
:1003D000079A801A0A9A801A441A012CC0F2F380F4
:1003E0000A94F0E09DF8420062281AD0682806D0EE
:1003F0006A280CD06C281CD0712808D019E0286815
:10040000286050F8041B28600D980880DBE02868FD
:10041000286050F8042B28600D98C117C2E900012C
:10042000D1E02868286050F8041B28600D980870F7
:10043000C9E02868286050F8041B28600D980860FF
:10044000C1E02868C01D20F007022A60D2E900013F
:1004500008322A60CDE90201002902D507982D2132
:100460000AE0BDF84000810702D507982B2103E080
:10047000C00705D50798202100F80A10401C0790F6
:1004800014A8079908180590214602A800F090FBCF
:1004900099E09DF842006C280DD0712818BF6A2899
:1004A00009D12868C01D20F007022A60D2E90001A6
:1004B00008322A6005E02968296051F8040B296098
:1004C0000021CDE902019DF84200682803D1DDE951
:1004D000020180B20BE0622803D1DDE90201C0B263
:1004E00005E0742818BF7A2804D1DDE90201002153
:1004F000CDE902019DF8400000072ED5DDE902019B
:10050000002908BF002828D044F02000782824D1F2
:100510000798302100F80A10401C411C079100F890
:100520000A401AE09DF84200294600F0FDF8CDE9A6
:100530000201002902DA07982D210AE0BDF84000E7
:10054000810702D507982B2103E0C00705D507983E
:10055000202100F80A10401C079014A807990818D9
:100560000590214602A800F09FFA2CE09DF8420079
:100570006C2809D0012007902868286050F8041BD7
:1005800028608DF850101EE02868286001AA50F8F5
:10059000041B2860ADF804100020ADF806004FF0F1
:1005A000FF300E9002A9404600F0F5F800280AD569
:1005B000ADE025208DF85000012007901CB18AF88D
:1005C0000140022007900F980799401A0A99401A93
:1005D0000899401A0B99401A0999401A0C99441A23
:1005E0009DF84000400710D420208DF80000002620
:1005F00009E0012300AA02A9404600F001FE0028FC
:1006000040F08580761CA642F3DB079E0DF1500B6F
:100610000AE01BF8011B0498C0470028049076D01C
:100620000D98401C0D90761E002EF2D130208DF8D2
:1006300000004FF0000B0A9E09E0012300AA02A966
:10064000404600F0DDFD002861D10BF1010BB34500
:10065000F3DB089EDDF814B00AE01BF8011B0498D8
:10066000C0470028049052D00D98401C0D90761E73
:10067000002EF2D130208DF800004FF0000B0B9EC1
:1006800009E0012300AA02A9404600F0B9FD0028B4
:100690003DD10BF1010BB345F3DB05980899099E99
:1006A00001EB000B09E01BF8011B0498C047049004
:1006B00068B30D98401C0D90761E002EF3D13020AB
:1006C0008DF800004FF0000B0C9E08E0012300AAFB
:1006D00002A9404600F094FDC8B90BF1010BB345E7
:1006E000F4DB9DF8400040077FF519AD20208DF820
:1006F0000000002600E0761CA642BFF610AD0123E4
:1007000000AA02A9404600F07BFD0028F3D04FF07C
:10071000FF3025B0BDE8F08F0000000000000000B1
:10072000686A6C747A4C0000622826D068281DD054
:100730006A2808D06C2827D0712804D0742823D0C8
:100740007A280CD020E00868C01D20F0070008605F
:10075000D0E90023083008601946104670470A683F
:100760000A6052F8040B0A60002170470A680A60A8
:1007700052F8040B0A6000B20BE00A680A6052F8F3
:10078000040B0A6040B204E00A680A6052F8040BE5
:100790000A60C11770472DE9F44F0D4694B0D5F8A3
:1007A00030B0BBF1000F804648BF6FF0004B00F047
:1007B000B1FD696B401801900FF67420D0E9002359
:1007C000CDE9022395F83800400702D4019841286A
:1007D00006D240200DF1100A01904FF0000909E007
:1007E00000F09EFD5FEA000AF7D14FF0FF3058E1BC
:1007F000ABEB040BBBF1010FC0F2CD801498018864
:1008000002AA0DF1010000F0E3FD0028044600F10A
:10081000D5801498008810B9641E00F1CF80A345DC
:10082000C0F2B980686901992218914280F0A180D4
:10083000296AC5F834904042401AA969401A696A89
:10084000401AE969401AA96AA0EB010995F8380035
:10085000400710D420208DF80000002609E0012375
:1008600000AA2946404600F0CBFC002840F0A680B4
:10087000761C4E45F3DB6E6957460BE017F8011BFB
:10088000A868C0470028A86000F09880E86A401C6B
:10089000E862761E002EF1D130208DF8000000278E
:1008A0002E6A09E0012300AA2946404600F0A8FC70
:1008B000002840F083807F1CB742F3DBAE69EF680D
:1008C0000AE017F8011BA868C0470028A86075D087
:1008D000E86A401CE862761E002EF2D130208DF8C6
:1008E000000000276E6A08E0012300AA294640465E
:1008F00000F086FC002861D17F1CB742F4DBE86879
:10090000A969EE690F180AE017F8011BA868C0472B
:100910000028A86052D0E86A401CE862761E002ECB
:10092000F2D130208DF800000027AE6A08E00123E4
:1009300000AA2946404600F063FC00283ED17F1CF7
:10094000B742F4DB95F8380040070ED520208DF82B
:100950000000002607E0012300AA2946404600F0D7
:100960004FFC58BB761C4E45F5DB4FF00009C5F82F
:100970001490224668690DF10101504400F036FDE3
:100980006869201868611498801C1490801E008883
:1009900000287FF42DAF686B6969401A296A401AF4
:1009A000A969401A696A401AE969401AA96A471A8E
:1009B00095F83800400710D400240CE04FF0FF39C0
:1009C00068E0A8682021C0470028A860F6D0E86A3F
:1009D000401CE862641CBC42F3DB6B69524629464A
:1009E000404600F00DFC0028E8D12C6A002609E002
:1009F000A8683021C0470028A860DFD0E86A401C02
:100A0000E862761CA642F3DBAB69EA6829464046F9
:100A100000F0F6FB0028D1D16C6A002609E0A86836
:100A20003021C0470028A860C8D0E86A401CE862AE
:100A3000761CA642F3DBE868A969EB690A18294627
:100A4000404600F0DDFB0028B8D1AC6A002609E082
:100A5000A8683021C0470028A860AFD0E86A401CD1
:100A6000E862761CA642F3DB95F8380040070DD506
:100A7000002409E0A8682021C0470028A8609DD074
:100A8000E86A401CE862641CBC42F3DBC5F81490C1
:100A9000C5F8349004A882451CBF504600F0E2FC23
:100AA000484615B0BDE8F08F2DE9FA4E05460A46D6
:100AB0002F696F2A08BF082405D041F0200078284C
:100AC00014BF0A2410243C26D5E90001642A18BF6B
:100AD000692A81468A4605D1002903DAD9F100093D
:100AE0006AEB4A0ABAF1000F08BFB9F1000F0CD146
:100AF000286B50B9082C36D195F83800000732D54C
:100B000030203B2687F83B002DE0E317484651464E
:100B1000224600F0E7FCA4FB0023A9EB02023032DE
:100B2000D2B2A6F1010B3A2A5E4603DB9DF80030F3
:100B3000513B9A1881465FEA010A0BF8072008BF6B
:100B4000B9F1000F03D0E868F1198842DDD3082C11
:100B500009D195F83800000705D5F05D302802D09E
:100B6000761E3020F055C6F13C00A861F119E9600D
:100B7000296B884208DA081A28624FF6EF71288F2D
:100B800008402887BDE8F38E00290ED595F8381067
:100B900001F01401102908D1696B6A69891A2A6A5F
:100BA000891A0E1A012EA8BF2E62BDE8F38E00002E
:100BB0002DE9F24F04468EB0D4E90001CDE90201DF
:100BC00004AF9DF8380040F0200BBBF1610F0AD054
:100BD000206B002848BF062004D408BFBBF1670F74
:100BE00001D1012020636168C1F30A5040F2FF7215
:100BF00090421CD1080304BF2068002809D10320BB
:100C0000A0619DF8380061381A2836D30FF234619C
:100C100008E00320A0619DF8380061381A2829D324
:100C20000FF21861E068032200F0E0FBBEE101284A
:100C300016DA204600F0CDFC012811DB002500204B
:100C4000BBF1610F20D1E168302201F8012B4A1C71
:100C5000E2609DF83820612A0CBF782258220FE00C
:100C6000626840F2FE3161F31E52451A62604FF035
:100C7000FF30E5E70FF2C051D4E70FF2C451D1E7DE
:100C80000A706169891C616110B90026002584E140
:100C9000BBF1610F40F09780206BD4E900AB0028D6
:100CA0004CBF2126461CDDE902010022002300F092
:100CB000B1FC36B23ABF8BF00040CDE902A0CDE9DD
:100CC00002AB06F101082D1F8DF810200DF1110760
:100CD00000E0C71DB8F1010F33DBDDE9020100229E
:100CE000002300F0AFFC2CD21C2102A800F0C2FCB3
:100CF000DDE9020100F046FDA8F10708B8F1010F97
:100D0000814609DB00F06AFD02460B46DDE902017F
:100D100000F07CFDCDE90201F81D072105E009F096
:100D20000F0200F8012D4FEA2919B9F1010F01DB7B
:100D3000491EF4D5491E5CBF002200F8012DF9D5EB
:100D4000C7E70DF11100391AB142B8BF0E4636B2ED
:100D500030000DF111072FD4884206DA04A941189A
:100D600049780829A8BF0F2100DA002104AA8218B7
:100D700000E0761E12F80139401E8B42F9D00F298F
:100D800004D104A941184A78521C4A70002802D59F
:100D900004AF761C2D1D36B2701E0DD4C1190A7811
:100DA0003032D2B23A2A03DB9DF838303A3B9A18F7
:100DB000401E01F80129F2D5206B002840F1ED809A
:100DC000701E2063E9E0DDE902010022002300F04B
:100DD00021FC3CBF81F00041CDE902012DB247F278
:100DE000975068434B49DFF8309190FBF1F52DB2F5
:100DF000C5F1070ABAF1010F90461CDBDDE9026775
:100E00005FEACA7007D542464B463046394600F085
:100E1000BDFD06460F464046494642464B464FEA10
:100E20006A0A00F0B3FDBAF1000F80468946E7D1A7
:100E3000CDE9026724E0CAF1000A0026374F14E02A
:100E40005FEACA7007D542464B463046394600F045
:100E50009DFD06460F464046494642464B4600F039
:100E600095FD4FEA6A0A80468946BAF1000FE7D13C
:100E7000DDE9020132463B4600F05AFECDE90201AF
:100E8000BBF1660F216BDFF898900CBF05F10A00EB
:100E900006204618142EA8BF132630208DF8100007
:100EA0000DF11107012E3DDBDDE9020100F080FCB0
:100EB00007F1080104220A23B0FBF3F303EB8307D5
:100EC000A0EB4700303001F8010C0A20B3FBF0F032
:100ED00000EB8007A3EB47033033521E01F8023DBD
:100EE000E9D1083E012E01F10807DBDBDDE9020153
:100EF00000F05EFC00F07CFC02460B46DDE90201DE
:100F000000F084FC00224B4600F040FDCDE90201D8
:100F1000CAE700BFA0860100000024400000F03FA7
:100F200084D797410DF11100381A0DF1110702E035
:100F3000401E6D1E7F1C39783029F9D0BBF1660F39
:100F400002D12DB2691C04E0BBF1650F0CBF012179
:100F50000021226B8E1836B2B042B8BF064636B2B8
:100F600031001AD4814204DAC85D3528A8BF39207F
:100F700000DA3020CA19521E00E0761E12F801393C
:100F8000491E8342F9D0392802D1C85D401CC8559A
:100F9000002902D57F1E761C6D1C2DB29DF83810DD
:100FA000009533B23A46204600F003F80FB0BDE892
:100FB000F08F2DE9F04786B006468A4690461D46DA
:100FC00000F0FFFE012D406A376B90F8009002DAC6
:100FD00001250FF274284AF02000BDF93840662838
:100FE00008BF641C12D0672876D114F1040F79DB96
:100FF000BC4277DA96F83800641C000702D4BD4280
:10100000B8BF2F4624B23F1B48BF002724B2F06868
:10101000B169012C21DA4A1C30230B54012F03DA69
:1010200096F83810090702D502F80090521CE742E2
:10103000B8BF7C4224B2E7196142AF42B26171622B
:10104000B8BF3D46B3692DB2F5612A46414618182E
:1010500000F0CCF9781BB062BBE00818A54216DAA4
:101060002A46414600F0C2F9B1696918601B012F98
:10107000B161706203DA96F83800000705D5F068B0
:1010800001F80090F069401CF061B762A1E02246CF
:10109000414600F0ABF9B06920182D1B012F03DA8F
:1010A00096F83810090703D5F16800F80190401C44
:1010B000B0612DB2AF42B8BF3D46F068B3692DB202
:1010C0002A4604EB0801181800F090F9B0692818B6
:1010D000B061781B70627CE0BAF1610F14D14FF0FF
:1010E000700A16E0BD4204DA96F83810090758BFB6
:1010F0002F467F1E48BF0027BAF1670F14BF4FF07D
:10110000450A4FF0650A04E0BAF1410F08BF4FF0FD
:10111000500AB169F06818F8013B0B544A1C012FC2
:1011200005DA96F83810090758BFB26115D502F8EC
:101130000090531C012FB3610FDB6D1E2DB2AF4227
:10114000B8BF3D462DB22A464146181800F04EF968
:10115000B0692818B061781B7062F068B16909182D
:10116000200081F800A004D42B20487001F102086F
:1011700004E02D224A7001F102086442002502AF0A
:1011800008E00A2200A800F035FE019807F8010BDC
:101190006D1C009C21B20129F3DA022D06DA4AF017
:1011A0002000652804BF302008F8010B4DB930201D
:1011B00008F8010B07E06D1E02A8285C303008F823
:1011C000010B012DF7DAF068B1690818A8EB0000EF
:1011D000F06196F8380000F0140010280DD1706905
:1011E000B1690818716A0818F1690818B16A081815
:1011F000716B8842BCBF081A306206B0BDE8F08748
:10120000F8B504460D4616461F46002004E0E86A7D
:10121000401CE8627F1E002047B116F8011BA86839
:10122000A0470028A860F2D14FF0FF30F2BD0000C7
:1012300000000000000000006E616E004E414E0094
:10124000696E6600494E46003000F8B504460D460A
:1012500016461F4600F0D6FD3B463246294620463C
:1012600001B0BDE8F04000F0E4BD00000278C9B272
:101270008A421AB11CBF10F8012FF9E718BF0020ED
:101280007047000000F10103810704D010F8011B32
:1012900089B18107FAD10268B2F10131914311F0AD
:1012A000803F04BF50F8042FF6E710F8011B11B17E
:1012B00010F8011BFBE7C01A70470000C9B2830792
:1012C00006D0521E22D310F8013B9942F7D11FE0FD
:1012D000083A13D302F1040241EA012141EA014133
:1012E00050F8043B121F21BF4B40A3F1013C2CEAF4
:1012F000030C1CF0803FF3D0C9B2001F083210F875
:10130000013B521E28BF91EA030FF8D818BF0120F5
:10131000401E704780B500F075FD012002BD000041
:1013200070B5054605F10F00C408C046C046E4008C
:10133000A54232D2082C04D2082402E0083000F082
:1013400091F82248026811000CD1011D0A6802B30D
:101350001368A34238BF111DF8D310E01D68A542E1
:101360000DD2191D0B68002BF8D11268011D00E089
:10137000191D0B6893420CD01D68A542F8D361B1CA
:101380000D682A68A2F10803A3420AD26A680A60BB
:101390000FE000F071FD0028D0D1C046C04600200B
:1013A00070BD63190B60121B6E685E600B681A607B
:1013B0002C60096800291DBF4A68002A091D002108
:1013C0000160C046C04605F1080070BD2C04002035
:1013D00070B504460D46164600F014FD3246294607
:1013E0002046BDE8704000F017BD000062B38B07D7
:1013F00008D0521E11F8013B00F8013B00F0248098
:101400008B07F6D1830740F0208000BF103A07D346
:1014100030B4B1E83810103AA0E83810F9D230BC36
:10142000530724BFB1E80810A0E8081044BF51F8E2
:10143000043B40F8043BD20724BF31F8022B20F8CC
:10144000022B44BF0B7803707047083A07D3B1E80A
:101450000810083A40F8043B40F804CBF7D2530791
:10146000E4E7000000B9704738B5A0F1080420682F
:10147000082833D310F0070F30D1C046C0461848B3
:10148000416809B18C4203D26160446017E019469B
:101490004B680BB1A342FAD30B685D18AC421BD367
:1014A000A54204D12268D2180A600C4607E04A68B7
:1014B0001AB123681B199A420ED362604C606168AE
:1014C00051B1226813198B4206D1002303600868CA
:1014D0008018206048686060C046C04631BD00008A
:1014E0002C0400201B4213D1094236D12AB1844674
:1014F000B0FBF2F002FB10C2704700F0D3BCFCD38B
:101500000022002370470B000200002100207047DA
:10151000904271EB030CF6D370B5B1FA81F4B3FAD3
:1015200083F52C1BA340C4F1200532FA05F63343A2
:10153000A2405FF00046E64002E05B085FEA32024C
:10154000841A71EB030524BF204629467641F4D363
:1015500002000B003000002170BD012ACFD970B508
:10156000140C20D0B1FA81F4B2FA82F5C4F120044F
:101570006419B4F12006D6D3B2405FF00044F440C1
:10158000002502E052085FEA3303C61A71EB020E2F
:1015900024BF3046714664416D41F3D302000B0015
:1015A0002000290070BD0C46B1FBF2F102FB114591
:1015B0002D0445EA1045B5FBF2F402FB145580B248
:1015C00040EA0545B5FBF2F002FB105240EA044048
:1015D00070BD30B4436803F0004201211B031B0BB4
:1015E000436004BF0368002B08D10DE00368DD0FE2
:1015F00045EA440444605B000360491E4468E3021A
:10160000F4D523031B0B436043681A43426008462A
:1016100030BC70474FF4001C1CEB410F94BF1CEB17
:10162000430F09E041EA030C50EA4C0C52EA0C0C5F
:1016300003D2994208BF9042704714BF8B42824246
:10164000704700004FF4001C1CEB410F94BF1CEBD3
:10165000430F09E041EA030C50EA4C0C52EA0C0C2F
:1016600003D28B4208BF8242704714BF9942904216
:101670007047000070B504460D466068C0F30A501C
:1016800040F2FF71884207D16068000304BF206800
:10169000002817D0022070BD20B92046FFF799FF1F
:1016A000012868DA012D0FDB40F2FF71091A8D4223
:1016B0000AD36068002847BF002030490020304925
:1016C000C4E90001012070BD4142A942616806DA07
:1016D0006FF31E51401941EA0050606042E0401E25
:1016E00063684519012205F1350062F31F5335285F
:1016F00001F00041636003D361600020206070BD91
:10170000002215F11F0F04DA226823600020203523
:101710006060684214D0521E25689241C0F12003D7
:10172000D2439D4045EAD272256825FA00F66568E5
:1017300005FA03F333432360636823FA00F5656019
:1017400060680843B2F1004F606003D80DD1207883
:10175000C0070AD52068401C2060206828B960684E
:10176000401C60604FF0FF3070BD6068884204BF6D
:1017700020680028F6D1002070BD00BF0000F0FFF7
:101780000000F07FF446400D40EAC120490006D237
:1017900000F014F8004248BF6FF00040604700F0CE
:1017A0000DF84FF0004188428CBF08464042604728
:1017B000400D40EAC120490080F00D8040F000401B
:1017C000490DA1F58061491C05D4D1F11F0154BF19
:1017D000C840C01770474FF000007047010040F14B
:1017E0000980F446404200F005F851F0004160479E
:1017F000010000BF09D0B0FA80F18840C91CC1F5D2
:101800008461090501EBD02140057047F0B44FF029
:10181000004591EA030F44BF6B4000F04FBB00BF8F
:10182000841A71EB030604D26E40001BB1411219F9
:1018300073414FF4001C1CEB410F34BF7CEB43069B
:1018400084E00C0DA4EB1356362E7DDC012E43DC18
:1018500045EAC32343EA525312BFD20292025B0805
:10186000240545EAC12141EA5051D2EBC0209941FB
:1018700025D407D1B0FA80F610FA06F164D0002022
:10188000203608E0B1FA81F6B140C6F1200220FA14
:1018900002F21143B0404FEAF474B4EB465434F012
:1018A00001064FEA74040AD8D6F50016760D04F046
:1018B0000044F04061FA06F25040F1404840C00A4E
:1018C00040EA415021F0004128BF5FEA500550F145
:1018D000000044EBD12137E045EAC323DB0A45EAA7
:1018E000C121C90AB6F120050EDD42EA0242120CFE
:1018F000C5F1200603FA06F6EB4042EA06056D4202
:10190000984161F100010DE062FA06F5F2405540A0
:1019100063FA06FC82EA0C02F3405A406D429041A1
:1019200061EB030111F4801F05D1641E620502D032
:101930006D004041494121F48011430875F1004395
:1019400050F1000041EB0451F0BC70471CEB410F1B
:1019500015D223F0004352EA43060BD04FEA4C0C59
:10196000BCEB410F04D80C0D661E342EB7DDEBE73F
:10197000801A994150EA410608BF0021E4E708BFF8
:101980001CEB430F28BF6FF00001DDE7B0B581EA23
:10199000030C0CF0004C40F2FF7515EA11541DBF0A
:1019A00015EA1357AC42AF4239E0E41923EA455334
:1019B00043F48013C90241F0004141EA505EC7027E
:1019C0001100A7FB020200284FF00000EEFB0120EF
:1019D0004FF00001E3FB072118BF42F0010240185D
:1019E00000214941E3FB0E01A4F580640F0302D2FC
:1019F00052004041494154F101046CDD470872F145
:101A0000004250F1000051EB0451A1F580115CBF80
:101A100041EA0C01B0BD4CEA05510020B0BD05EA19
:101A20001357AC4214BFAF4241E050EA410E1CBF15
:101A300052EA430E02E061460020B0BD24423C441D
:101A40001BD15FEA070EF6D0090302BF0146002052
:101A5000AEF1140EB1FA81F7AEEB070401FA07FEFE
:101A60000C37C7F1200100FA07F7C8404EEA000E14
:101A700023EA455343F48013A2E733F00043B3FA5B
:101A800083F704BFB2FA82FE77440B3FE41BB7F141
:101A9000200E2FBF02FA0EF3BB40C7F1200E22FA30
:101AA0000EFE38BF43EA0E03BA40641C82E750EAD8
:101AB000410E14BF52EA430E6FF000014FF40017BD
:101AC00017EB430F8ABF194617EB410FB5E74CEAF6
:101AD00005510020B0BDD4F10104B4F120070FDAA4
:101AE000C4F12007520828BF42F0010210FA07F59E
:101AF00001FA07F7E1BF2A43E0403843E1400FE035
:101B0000352C98DCC7F1200452EA400220FA07F293
:101B100018BF42F0010231FA07F0A1400A43002148
:101B200072F1004250F1000051EB0C01B0BD000019
:101B30002DE9F04140F2FF7581EA030C0CF0004CF6
:101B400015EA11541DBF15EA1357AC42AF42E9E044
:101B5000BC41C1F31301C3F31303801A994143F449
:101B6000801304D2641E4000494180185941C902C3
:101B700041EA5051B1FBF3F603FB1611A2FB0675C7
:101B8000D7EBC020A94102D2761E80185941C90264
:101B900041EA5051B1FBF3FE03FB1E11A2FB0E758F
:101BA000D7EBC020A94103D2AEF1010E80185941F4
:101BB000890241EA9051760546EA8E2EB1FBF3F692
:101BC00003FB1611A2FB0675D7EB8020A94102D2B8
:101BD000761E80185941C90241EA50514EEA060E5C
:101BE000B1FBF3F603FB1611A2FB0675D7EBC02081
:101BF000A94102D2761E80185941C90241EA5051CA
:101C0000B1FBF3F703FB1711A2FB0735D3EBC020A1
:101C1000A94167F100070CBF004247F0010766F3D6
:101C2000D5274FEA1E31B80814F5806414DDBD07CE
:101C300075F1004250EB0E5051EB045111F5801F2D
:101C40005CBF41EA0C01BDE8F0814CF07F6141F0DE
:101C5000E0410020BDE8F081BD076D0840EA0E506C
:101C600041F48011D4F10104B4F120060ADAC4F180
:101C700020060200E04001FA06F3E1401843B240BA
:101C800015430EE0342C14DCC6F1200445EA40056F
:101C90006D0820FA06F2154321FA06F0A1400D4323
:101CA000002175F1004250F1000051EB0C01BDE83C
:101CB000F08100205FEA0C01BDE8F081CFB99218F5
:101CC0005B41B3FA83F704BFB2FA82F6BF190B3F48
:101CD000B7F120062FBF02FA06F3BB40C7F120067A
:101CE00022FA06F638BF3343BA401CB1E419641E29
:101CF0002FE77F4231F00041B1FA81F404BFB0FA1E
:101D000080F6A4190B3CB4F120062FBF00FA06F1AF
:101D1000A140C4F1200620FA06F638BF3143A040A6
:101D20003C1B16E7AC421ABF05EA1357AF4214E05A
:101D300050EA41061CBF52EA4306BFE750EA41079A
:101D4000304661461CBF41EA0551BDE8F08152EAC8
:101D5000430C08BFC143BDE8F08100204FF40016DA
:101D600016EB410F98BF16EB430F08BF16EB410F60
:101D700024BFC14305E016EB430F0CBF61464CEA9C
:101D80000551BDE8F081000080B5134800F000F96E
:101D90000FF24C020FF244010160426241600FF207
:101DA0004402826381600FF24402C16001614161BB
:101DB00081618162C16201634163C2630164416404
:101DC00001BD10B5044800F0E3F80446206808B9E6
:101DD000FFF7DAFF204610BD0000002000000000E1
:101DE0002E00000066616C736500000074727565FA
:101DF0000000000091FBF2F303FB1211C0E9003177
:101E00007047000080B5DFF80C0000F0C1F8806971
:101E100002BD00009000002030B430B90FF248003D
:101E2000D0E90045C2E900451BE00170012030BC4B
:101E3000704730B431B90FF23800D0E90045C3E93A
:101E400000450EE01AB930BC6FF00100704708B1D0
:101E50000A7802800978481E804130BCC043C00F18
:101E60007047002030BC70470000000000000000F8
:101E700000000000000000000749086808B10020C9
:101E800070470648C008C00008600549C908C90075
:101E9000091A0160704700BF440400205708002061
:101EA000500A002070470000F0B44FF0004591EA5E
:101EB000030C44BF6B40FFF7B3BC00BF841A71EB47
:101EC000030603D2001BB141121973414FF4001CE9
:101ED0001CEB410F34BF7CEB430443E00C0DA4EB3F
:101EE0001356352E50DC45EAC323DB0A45EAC121EF
:101EF000C912B6F120050DDD63FA05F6EB4086EA5E
:101F00000305124218BF45F00105C01851F1000148
:101F10000CD213E062FA06F5F2405540F3415A4004
:101F2000B340F3405A408018594107D349085FEA4B
:101F300030005FEA350528BF45F0010501F5801145
:101F4000420875F1004250F1000041EB0451F0BC31
:101F50004FF4001C1CEB410F38BF70470020090DE7
:101F6000090570471CEB410F10D252EA43060BD013
:101F7000BCEB410F05D80C0DAB43661E342EB5DD0E
:101F800002E0AB4380185941F0BC7047F0BC704789
:101F90007047000080B54FF40041DFF8D00A00F030
:101FA00097FF142000F0D8FF4FF40041DFF8BC0A7F
:101FB00000F090FF142000F0CFFF4FF40041DFF855
:101FC000AC0A00F085FF01BD38B50400002510E023
:101FD0008021DFF8980A00F07DFF2021DFF88C0ACD
:101FE00000F076FF64002021DFF8800A00F072FF25
:101FF0006D1CEDB2082D08DAE4B22006E8D5802188
:10200000DFF8680A00F064FFE7E731BD38B5002467
:10201000002514E02021DFF8540A00F059FF640085
:102020004021DFF8480A00F048FF002801D054F0B2
:1020300001042021DFF8340A00F04CFF6D1CEDB2E2
:10204000082DE7DB2000C0B232BD38B504000D001A
:102050001021DFF8180A00F03DFF54F08000C0B2F4
:10206000FFF7B2FF2800C0B2FFF7AEFF1021DFF884
:10207000FC0900F02DFF31BD10B504001021DFF880
:10208000EC0900F027FF14F07F00FFF79DFFFFF73A
:10209000BDFF04001021DFF8D40900F019FF200073
:1020A000C0B210BD38B50400E4B2062C05D105203D
:1020B000DFF82C1A81F8F00003E0DFF8240A80F83A
:1020C000F0400120FFF7D8FF050015F0F805254383
:1020D0002900C9B20120FFF7B8FF2800C0B232BD05
:1020E00010B504000120FFF7C7FF10F07F00204368
:1020F0000100C9B20120FFF7A8FF10BD10B5040010
:10210000DFF8DC09C0F8F4402000FFF771FB002283
:10211000DFF8E43BFFF70CFDFFF74AFB0400210C5E
:10212000C9B20620FFF791FF210AC9B20720FFF7C5
:102130008CFF2100C9B20820FFF787FF10BD70B5E2
:102140000920FFF799FF06000620FFF795FF04001E
:102150000720FFF791FFE4B2C0B2000250EA044446
:102160000820FFF789FF2043FFF742FB0022DFF83A
:10217000883BFFF70BFC04000D0000210920FFF74E
:1021800064FF3B20FFF778FF50F04001C9B23B20CD
:10219000FFF75BFF3B20FFF76FFF8006FAD4DFF805
:1021A0005C0BFFF7ABFF3B20FFF766FF50F04001F1
:1021B000C9B23B20FFF749FF3B20FFF75DFF8006D8
:1021C000FAD43100C9B20920FFF73FFF20002900EF
:1021D000FFF7EEFAFFF792FF70BD80B5DFF8741AD3
:1021E00091F8F110C0B2814214D0DFF8681A81F87A
:1021F000F1000020FFF756FF8020FFF771FF01205C
:10220000FFF750FF00214020FFF71FFF0021412072
:10221000FFF71BFF01BD0020DFF8381A81F8F1003D
:102220000020DFF8301A81F8F0000020DFF8241ACF
:10223000C1F8F4000020DFF81C1A81F81801002012
:10224000DFF8101AC1F814010020DFF8081AC1F8ED
:10225000FC000020DFF8FC1981F805010020DFF800
:10226000F41981F80A010020DFF8E819C1F800012B
:102270000020DFF8E01981F808010020DFF8D41908
:1022800081F80B010020DFF8CC1981F80C01002047
:10229000DFF8C01981F80D010020DFF8B81981F8C6
:1022A00004010020DFF8AC1981F809010020DFF8F3
:1022B000A41981F8F8000020DFF89819A1F80601A8
:1022C0000020DFF8901981F80E010020DFF8841952
:1022D000C1F81001704780B500F008FFFFF79BFFC1
:1022E000FFF758FEFFF72BFF8020FFF776FF012056
:1022F000DFF8601981F8F00001BD80B50020DFF83B
:10230000E007D0F8F400DFF8F819884204D31B2066
:10231000FFF7B2FE9D3803E01B20FFF7ADFEA438A7
:1023200000B202BD38B5040000258020C0B2FFF71E
:1023300054FFDFF82009D0F8F400FFF7DFFE052096
:10234000FFF7B0FE00F044FEFFF7D7FF05000020C6
:10235000FFF7A8FE24B22DB2AC4201DA002000E063
:10236000012032BDDFF8EC0890F8F00070472DE94D
:10237000F843894690461F00C0B2FFF72EFFB9F11F
:10238000030F00D3FEE719F10709DFF8C808C0F80A
:10239000FC90DFF8C008C0F80081DFF8B80880F8CA
:1023A00005710A9CDFF8AC0880F808410B9DDFF846
:1023B000A40880F809510C9EDFF8980880F80A619B
:1023C0000D98DFF8901881F80B010E98DFF884184B
:1023D00081F80C010F98DFF87C1881F80D01109836
:1023E000DFF8701881F80E01B8F10D0F02D35FF01D
:1023F0000C0804E0B8F1060F01D25FF00608B9F14D
:10240000070F05D1B8F10B0F08D0B8F10C0F05D0AC
:10241000B9F1080F08D1B8F10C0F05D10120DFF890
:10242000341881F8040104E00020DFF8281881F84E
:1024300004011D20FFF720FEFFB2780050EA0910CA
:1024400054EA0001C9B21D20FFF7FFFD1E20FFF76F
:1024500013FE099FC0B210F0080050EA0810F6B24F
:10246000B1000843C7F3012189B20143C9B21E205C
:10247000FFF7EBFD2620FFF7FFFD10F0F700DFF878
:10248000D41791F8041150EAC101C9B22620FFF710
:10249000DCFD3900C9B21F20FFF7D7FD089EB6B298
:1024A000310AC9B22020FFF7D0FD3100C9B2212086
:1024B000FFF7CBFDE4B2012C04D12900C9B22220E0
:1024C000FFF7C3FDDFF88C0790F80B0101280FD14F
:1024D0004420FFF7D1FD50F08001C9B24420FFF73E
:1024E000B4FDDFF8700790F80C112420FFF7ADFD64
:1024F000B9F1090F08D102213620FFF7A6FD6421AA
:102500003A20FFF7A2FD0FE0B9F1090F08D102212F
:102510003620FFF79AFD7F213A20FFF796FD03E072
:1025200003213620FFF791FDB8F1060F0FD13120BE
:10253000FFF7A2FD10F0F80050F00501C9B23120FC
:10254000FFF783FD0C213720FFF77FFD0EE03120E0
:10255000FFF792FD10F0F80050F00301C9B23120EE
:10256000FFF773FD0A213720FFF76FFDBDE8F18308
:10257000F8B505000F00002400260920FFF77CFDB8
:1025800004004D20FFF778FD060014F07F0454F09E
:102590007004FFB2002F01D054F08004E4B2200692
:1025A00026D56DB2122D02DB56F0070603E016F0B9
:1025B000F80050F00406F6B216F0070007280BD119
:1025C0006DB2052D00DA05256DB2152D00DB142541
:1025D000681F60F3030418E06DB2022D00DA0225D3
:1025E0006DB2122D00DB1125A81E60F303040CE070
:1025F0006DB215F1010F01DA5FF0FF356DB20F2DED
:1026000000DB0E25681C60F303042100C9B2092019
:10261000FFF71BFD3100C9B24D20FFF716FDDFF8B3
:10262000340680F8F850F1BD2DE9F8430C00150090
:102630009846C0B2FFF7D1FD2900C9B2200040B2D0
:10264000FFF796FFB8F1030F00D3FEE718F1070874
:10265000DFF80006C0F8FC80DDF82090DFF8F40514
:10266000C0F80091099CDFF8EC0580F805410A9D4F
:10267000DFF8E005A0F806510B9EDFF8D80580F8DA
:1026800008610D98DFF8CC1581F80B010E98DFF882
:10269000C41581F80C010C9FDFF8B80580F80A71A9
:1026A0000F98DFF8B01581F80D011098DFF8A41528
:1026B000C1F81001B9F10D0F02D35FF00C0904E06D
:1026C000B9F1060F01D25FF00609B8F1070F05D185
:1026D000B9F10B0F08D0B9F10C0F05D0B8F1080F04
:1026E00008D1B9F10C0F05D10120DFF8681581F888
:1026F000040104E00020DFF85C1581F80401DFF834
:10270000540590F80B0101280FD14420FFF7B4FCC9
:1027100050F08001C9B24420FFF797FCDFF8340580
:1027200090F80C112420FFF790FC1D20FFF7A4FC6B
:10273000E4B2600050EA081056EA0001C9B21D2058
:10274000FFF783FC1E20FFF797FCC0B210F00B00D0
:1027500050EA0910FFB2B9000143C9B21E20FFF7C9
:1027600074FC2620FFF788FC10F0F700DFF8E41473
:1027700091F8041150EAC101C9B22620FFF765FCA7
:10278000ADB2290AC9B22020FFF75FFC2900C9B207
:102790002120FFF75AFCB9F1060F0FD13120FFF7C6
:1027A0006BFC10F0F80050F00501C9B23120FFF7C2
:1027B0004CFC0C213720FFF748FC0EE03120FFF7DE
:1027C0005BFC10F0F80050F00301C9B23120FFF7B4
:1027D0003CFC0A213720FFF738FCBDE8F1832DE9E6
:1027E000F04F83B08846002000240025BC48D0F874
:1027F000FC00072804D00ED3092809D004D30AE02E
:102800000024DFF8005506E00024DFF8FC5402E065
:102810000024DFF8F8540120B149D1F800118840B4
:10282000FEF7DCFF02000B0020002900FFF780F913
:1028300002000B000020DFF8D814FFF779F906003A
:102840000F00A748B0F80601FEF7D2FF0022DFF81C
:10285000C434FFF729FB32003B00FFF797F8040070
:102860000D009F4890F80801002802D05FF0140A7C
:1028700001E05FF0000A9A4890F80401002802D0B5
:102880005FF0080901E05FF00009954890F8050144
:10289000001DFEF7A3FFCDE900015FFA88F85FEAAB
:1028A000C8008F49D1F80011B0EB81008C4991F834
:1028B0000A1110EB01101C30B0EB0A00FEF798FF74
:1028C00082468B468648D0F80001D9EB8000FEF79F
:1028D0008FFF02000B0050465946FFF729F900F020
:1028E00001FDDDE90023FFF751F800220023FEF788
:1028F000A9FE01D3002000210022DFF81C34FFF7DD
:10290000D3FA32003B00FFF741F822002B00FFF71B
:10291000CBFA02000B000020DFF80014FFF736F8B6
:10292000DFF8FC23DFF8FC33FFF7BEFA00F00AFD06
:10293000FEF73EFFBDE8FE8F70B504000D000026D7
:10294000002605E021780020FFF77FFB641C761C41
:10295000F6B2EDB2AE42F5D370BD70B504000D0015
:102960000026002605E00020FFF786FB2070641C8F
:10297000761CF6B2EDB2AE42F5D370BD80B5B54867
:1029800090F80B0101280FD1F5211120FFF75DFB15
:102990004020FFF771FB10F0330050F04001C9B246
:1029A0004020FFF752FB0EE0F7211120FFF74DFB0F
:1029B0004020FFF761FB10F03F0050F04001C9B22A
:1029C0004020FFF742FB0320FFF76CFB01BD38B549
:1029D00004000D000020D448406880479D4890F8CE
:1029E0000D0101280CD13320FFF746FB10F0BE018A
:1029F0003320FFF72AFB19213B20FFF726FB0EE0CF
:102A00003320FFF739FB10F0BF0050F00101C9B2CD
:102A10003320FFF71AFB1D213B20FFF716FB8D48E3
:102A200080F820512900C9B22220FFF70EFB0021B7
:102A30000E20FFF70AFB00210D20FFF706FB012007
:102A4000FFF71AFB0721084204D10120FFF72AFBF8
:102A500000F0BEFA2900C9B22000FFF76DFF7D48E3
:102A6000D0F81001FFF78AFF31BD000000000240DE
:102A700080B50120FFF716FBFF211120FFF7E5FAD3
:102A800000214020FFF7E1FA00214120FFF7DDFAA5
:102A90000020FFF707FB01BD80B50120FFF702FB17
:102AA00001BD80B50121A14800F012FA02219F4822
:102AB00000F00EFA04219D4800F00AFA01219B481B
:102AC00000F00AFA0221994800F006FA042197481A
:102AD00000F002FA4FF4FA7000F03EFAEEE7000060
:102AE0005C01002010B500240520FFF7DBFA04008C
:102AF0000120FFF7C1FAE4B2844201D0002000E0D7
:102B0000012010BD38B504000025524890F80D0191
:102B100001280DD13320FFF7AFFA50F04101C9B2BF
:102B20003320FFF792FA19213B20FFF78EFA0EE0CF
:102B30003320FFF7A1FA10F0BF0050F00101C9B235
:102B40003320FFF782FA1D213B20FFF77EFA414830
:102B500090F80E513F4890F80B0101280CD11D212F
:102B60001120FFF772FA4020FFF786FA10F03301C8
:102B70004020FFF76AFA0BE01F211120FFF765FAEA
:102B80004020FFF779FA10F03F014020FFF75DFA8F
:102B900000210F20FFF759FA00210D20FFF755FA09
:102BA00005202C4981F8F000EDB2002D10D11E2037
:102BB000FFF762FAC0B210F0FC00210A0143C9B26B
:102BC0001E20FFF742FA2100C9B21F20FFF73DFA8D
:102BD000EDB2012D03D10520FFF764FA02E00620D3
:102BE000FFF760FA31BD80B5FA211120FFF72DFA09
:102BF0004020FFF741FA10F03F014020FFF725FA8F
:102C00000720FFF74FFA01BD4948C0787047002000
:102C10004749C870704701204549C87000204449A1
:102C200008700020424988707047704770477047AD
:102C3000704770477047704700203D49087000207A
:102C40003B49C87000203A494870002038498870D4
:102C5000704700005C0100200020C0B2704710B532
:102C60008AB034480068804733483249C968884789
:102C7000002008900020079000200690002005907A
:102C8000012004900020039008200290042001906D
:102C90000C2000900023012214218020254CA469DF
:102CA000A0470120089000200790002006900020F7
:102CB0000590012004900020039000200290052040
:102CC00001900820009004230C2200218020194C40
:102CD0006469A04764201749C96A8847FFF702FF63
:102CE000002801D1FFF7DDFE41F211101349C1F8B0
:102CF00014010AB010BD000080844E4000A1BC3316
:102D000041DD4A1F8084FE4080840E4180841E4144
:102D10000000F03F000011400000204080842E4160
:102D20002B8716D9CEF7EF3FB84D000800040240BC
:102D300034040020004D00088050DE195C010020A2
:102D400080B53049884208D10121012000F0CDFB37
:102D50000021012000F0C9FB52E02B49884208D134
:102D60000121022000F0C1FB0021022000F0BDFB88
:102D700046E02649884208D10121042000F0B5FB35
:102D80000021042000F0B1FB3AE02149884208D13B
:102D90000121082000F0A9FB0021082000F0A5FB7C
:102DA0002EE01C49884208D10121102000F09DFB33
:102DB0000021102000F099FB22E01749884208D139
:102DC0000121402000F091FB0021402000F08DFB0C
:102DD00016E01249884208D10121802000F085FBCD
:102DE0000021802000F081FB0AE00D49884207D1D4
:102DF0000121202000F079FB0021202000F075FB4C
:102E000001BD000000000240000402400008024032
:102E1000000C02400010024000180240001C02405A
:102E20000014024030B400220023002400230022BA
:102E30003FE0012393400C681C409C4238D103685A
:102E400003241500EDB26D00AC40A3430C791500CE
:102E5000EDB26D00AC40234303600B79012B02D02F
:102E60000B79022B16D1836803241500EDB26D0097
:102E7000AC40A3434C791500EDB26D00AC40234348
:102E80008360838801249440A3438C799440A4B246
:102E900023438380C36803241500EDB26D00AC406A
:102EA000A343CC791500EDB26D00AC402343C36061
:102EB000521C102ABDD330BC70470022008A89B250
:102EC000084201D0012200E000221000C0B2704789
:102ED0000183704741837047828A514081827047E5
:102EE00070B400230023D2B211F00703DBB29B00C1
:102EF00012FA03F389B2CA1010EB820289B2CC1025
:102F000010EB8404246A0F2511F00706F6B2B60010
:102F1000B540AC43146289B2CA1010EB8202126A47
:102F2000134389B2C91010EB8100036270BC704773
:102F300080B57FF0040000F032FB174800681749A5
:102F4000B0FBF1F016490870154800784FF47A711B
:102F500048431449088001BD80B21249098848439A
:102F6000114908600020114908601148006850F0BC
:102F700001000F4908600E48006810F00110012898
:102F8000F9D00B480068400840000949086000205B
:102F900006490860704700005801002000127A00BE
:102FA0004A0400204804002014E000E018E000E09B
:102FB00010E000E038B50400002504E04FF47A701A
:102FC000FFF7CAFF6D1CEDB2E4B2A542F6D331BDE6
:102FD000002001E000BF401C80B241F2F81188429D
:102FE000F8DB704700B583B00120009001208DF818
:102FF000040003208DF8050000A9B748FFF712FF71
:103000000220009001208DF8040003208DF80500B7
:1030100000A9B148FFF706FF0420009001208DF8B9
:10302000040003208DF8050000A9AB48FFF7FAFE65
:103030000121A948FFF74CFF0221A748FFF748FFED
:103040000421A548FFF744FF07BD00B583B0012068
:10305000009001208DF8040003208DF8050000A9E0
:103060009E48FFF7DFFE01219C48FFF733FF4FF436
:103070004070009001208DF8040003208DF80500B9
:1030800000A99548FFF7CEFE4FF400719248FFF774
:1030900021FF4FF480719048FFF71AFF4FF4005062
:1030A000009000208DF8040003208DF8050000A991
:1030B0008B48FFF7B7FE07BD00B583B04FF48850CB
:1030C000009001208DF8040003208DF8050000A970
:1030D0008248FFF7A7FE4FF480718048FFF7F8FEA3
:1030E0004FF480517D48FFF7F5FE07BD00B585B070
:1030F00048F2B000019001208DF8080002208DF800
:10310000090000208DF80A0000208DF80B0001A9AD
:103110007248FFF787FE4020019000208DF80800DC
:1031200000208DF80B0001A96C48FFF77BFE0820FA
:10313000019000208DF8080000208DF80B0001A9F7
:103140006548FFF76FFE0121012000F0AEF9032171
:10315000012000F03FFA0820039000208DF81000B5
:1031600008208DF8110001208DF8120003A800F04E
:103170005BFA09208DF8000001208DF80100012084
:103180008DF8020001208DF8030000A800F0D2F9AC
:103190001020019000208DF8080000208DF80B0011
:1031A00001A94D48FFF73EFE0421012000F012FA6C
:1031B0001020039000208DF8100008208DF81100D9
:1031C00001208DF8120003A800F02EFA0A208DF8D5
:1031D000000001208DF8010001208DF8020001207F
:1031E0008DF8030000A800F0A5F920213B48FFF767
:1031F00071FE10213948FFF76BFE80213748FFF739
:1032000067FE05B000BD80B50121032000F03DF947
:103210003248FFF795FD3048FFF792FDFFF7E2FED9
:10322000FFF713FF01BD80B501212B48FFF752FEC8
:1032300002212948FFF74EFE04212748FFF74AFEE6
:103240006420FFF789FE01212348FFF741FE022198
:103250002148FFF73DFE04211F48FFF739FE642097
:10326000FFF77AFE01211C48FFF734FE02211A48BD
:10327000FFF730FE04211848FFF72CFE6420FFF70B
:103280006BFE01211448FFF723FE02211248FFF7CD
:103290001FFE04211048FFF71BFE6420FFF75CFEB1
:1032A00001210D48FFF716FE02210B48FFF712FE21
:1032B00004210948FFF70EFE6420FFF74DFE0121AF
:1032C0000548FFF705FE02210348FFF701FE042130
:1032D0000148FFF7FDFD01BD00040240000002406F
:1032E0000008024040F2FF7C1CEA115240F2FE331B
:1032F000D21ACCBFD2F1350316E0B2F1150309DAC8
:103300006FEA4C53D340094201D4401E594100207A
:10331000994370476FF00002DA40094202D48018E6
:1033200051F1000190437047352A09DA50EA410310
:103330001CBF40F2FF31090528BF4FF000410020BB
:103340007047000040F2FF7C1CEA115240F2FE334D
:10335000D21ACCBFD2F1350316E0B2F1150309DA67
:103360006FEA4C53D340094201D5401E5941002019
:10337000994370476FF00002DA40094202D5801885
:1033800051F1000190437047352A09DA50EA4103B0
:103390001CBF4FEA0C5101F1804138BF00210020D1
:1033A000704700000021002100220023002100219D
:1033B0005649096811F00C01002906D0042911D0E2
:1033C000082912D00C2913D031E051490968C1F302
:1033D00042310122491C12FA01F14FF400425143DB
:1033E000016030E04B4901602DE04B4901602AE06B
:1033F0004649096811F47011444A126812F44002F7
:10340000464B890CC95C920D521C404B1B6813F44F
:103410008033002B05D13F4B5943B1FBF2F10160E2
:1034200004E03D4B5943B1FBF2F101600BE0384938
:103430000968C1F342310122491C12FA01F14FF42B
:103440000042514301603149096811F0F001090956
:10345000334A895C02681300CB4043602B490968FA
:1034600011F4E061090A2E4A895C42681300CB40DE
:1034700083602649096811F46051C90A284A895CA9
:1034800042681300CB40C3607047C9B2002905D021
:103490002449096808432349086005E0214909686F
:1034A00031EA00001F4908607047C9B2002905D001
:1034B0001D49096808431C49086005E01A49096864
:1034C00031EA0000184908607047C9B2002905D0E8
:1034D0001649096808431549086005E01349096859
:1034E00031EA0000114908607047C9B2002905D0CF
:1034F0000F49096808430E49086005E00C4909684E
:1035000031EA00000A4908607047000008380240AC
:10351000043802400024F40000127A004C0100201C
:103520003C0100201C380240203802402438024070
:103530001038024010B4002200230F24C178002963
:1035400021D01F49096811F4E061D1F5E0610A0A50
:10355000D2F10403E4B221000C001441417811FAC5
:1035600003F2817821400A431201164903785A5424
:103570000121027812F01F029140134A0078401195
:1035800042F8201009E00121027812F01F02914058
:103590000E4A0078401142F8201010BC70470428F1
:1035A00006D10B48006850F004000949086005E0A6
:1035B0000748006830F004000549086070470000C3
:1035C0000CED00E000E400E000E100E080E100E05C
:1035D00010E000E010B400220F2211F00303DBB270
:1035E0009B009A400F4BC9B28C1053F8243033EA39
:1035F00002020C4BC9B28C1043F82420094AC9B20C
:103600008B1052F82320C0B211F00303DBB29B00F1
:1036100098401043034AC9B2891042F8210010BCF7
:103620007047000008000140002128498279002AE3
:1036300035D0264A126803689A43244B1A60244AFC
:10364000126803689A43224B1A60027951180A687B
:1036500003681A430A601F490968026891431D4ABA
:1036600011601D490968026891431B4A1160417944
:1036700010290CD11749096802681143154A1160D5
:103680001549096800680843134908600EE00F49AE
:10369000427951180A6800681043086006E0027910
:1036A00051180A68006832EA00000860704700217B
:1036B0000A490968014201D0012100E00021080007
:1036C000C0B270470549086070470000000401401F
:1036D00004040140080401400C04014014040140AA
:1036E00080B50121DFF81006FFF7F4FB0221DFF8B7
:1036F0000806FFF7EDFB0421DFF8FC05FFF7EAFB06
:103700004FF49670FFF728FC0121DFF8EC05FFF776
:10371000DFFB0221DFF8E005FFF7DCFB0421DFF827
:10372000D805FFF7D5FB4FF49670FFF715FCD8E7E7
:1037300010B504002100C9B289B2DFF8C00500F05D
:1037400061FB4021DFF8B40500F08DFB0028F8D0C4
:10375000200010BD38B5002496210022DFF8A055C6
:10376000280000F0CFFB0020DFF8941581F89600C8
:10377000DFF8900500F0FAFBDFF8840590F896007A
:10378000142809DA641CFFF723FCA4B241F2893043
:103790008442F1DB002034E0DFF8640590F8960005
:1037A00000E0401EC0B200282AD0DFF85415C0B295
:1037B000415C0D29F5D1DFF84815C0B241184978B0
:1037C0000A29EED1DFF83815C0B2411889784F299F
:1037D000E7D1DFF82C15C0B24118C9784B29E0D1E8
:1037E000DFF81C15C0B2411809790D29D9D1DFF8CD
:1037F0001015C0B2411849790A29D2D1012000E040
:10380000002032BD38B5002496210022DFF8F054A4
:10381000280000F077FB0020DFF8E41481F8960020
:10382000DFF8E40400F0A2FBDFF8D40490F896007F
:10383000142809DA641CFFF7CBFBA4B241F28930EB
:103840008442F1DB002084E0DFF8B40490F89600B5
:1038500000E0401EC0B200282AD0DFF8A414C0B295
:10386000415C0D29F5D1DFF89814C0B241184978B0
:103870000A29EED1DFF88814C0B2411889784F299F
:10388000E7D1DFF87C14C0B24118C9784B29E0D1E8
:10389000DFF86C14C0B2411809790D29D9D1DFF8CD
:1038A0006014C0B2411849790A29D2D1012050E0F0
:1038B000DFF84C0490F8964002E0FFF711FF641E19
:1038C000E4B2002C44D0DFF83804E4B2205C0D28C8
:1038D000F5D1DFF82C04E4B2201840780A28EED1A4
:1038E000DFF81C04E4B2201880784528E7D1DFF81F
:1038F0001004E4B22018C0785228E0D1DFF80004A8
:10390000E4B2201800795228D9D1DFF8F403E4B2E8
:10391000201840794F28D2D1DFF8E403E4B2201810
:1039200080795228CBD1DFF8D803E4B22018C079CF
:103930000D28C4D1DFF8C803E4B22018007A0A28A1
:10394000BDD1FFF707FF0028B7D0FFF75BFFB6E751
:10395000002032BD38B5002496210022DFF8A053A4
:10396000280000F0CFFA0020DFF8941381F89600C9
:10397000DFF8980300F0FAFADFF8840390F8960075
:10398000132809DA641CFFF723FBA4B241F2893043
:103990008442F1DB002034E0DFF8640390F8960005
:1039A00000E0401EC0B200282AD0DFF85413C0B295
:1039B000415C0D29F5D1DFF84813C0B241184978B0
:1039C0000A29EED1DFF83813C0B2411889784F299F
:1039D000E7D1DFF82C13C0B24118C9784B29E0D1E8
:1039E000DFF81C13C0B2411809790D29D9D1DFF8CD
:1039F0001013C0B2411849790A29D2D1012000E040
:103A0000002032BD38B5002496210022BC4D28008C
:103A100000F078FA0020BA4981F89600BC4800F01E
:103A2000A5FAB74890F896001D2809DA641CFFF73C
:103A3000CFFAA4B241F289308442F2DB00202DE0BB
:103A4000AF4890F8960000E0401EC0B2002824D095
:103A5000AB49C0B2415C0D29F6D1A949C0B24118A9
:103A600049780A29F0D1A649C0B2411889784F296E
:103A7000EAD1A349C0B24118C9784B29E4D1A04981
:103A8000C0B2411809790D29DED19D49C0B2411853
:103A900049790A29D8D1012000E0002032BD2DE962
:103AA000F04105000E001700002496210022DFF8E7
:103AB0005082404600F026FA0020914981F8960095
:103AC000944800F053FA944800F050FABFB23B001B
:103AD000F6B232002900914800F048FA884890F880
:103AE0009600662809DA641CFFF772FAA4B241F264
:103AF00089308442F2DB00202DE0814890F8960066
:103B000000E0401EC0B2332824DB7D49C0B2415CD6
:103B10000D29F6D17A49C0B2411849780A29F0D165
:103B20007749C0B2411889784F29EAD17449C0B2A7
:103B30004118C9784B29E4D17149C0B241180979BB
:103B40000D29DED16E49C0B2411849790A29D8D170
:103B5000012000E00020BDE8F08138B50024962166
:103B60000022674D280000F0CDF90020644981F85B
:103B700096006B4800F0FAF9614890F896003028FA
:103B800009DA641CFFF724FAA4B241F289308442B6
:103B9000F2DB00206DE01E2000E0401CC0B23228A5
:103BA00066DA5749C0B2415C4829F6D15449C0B2DF
:103BB000411849785429F0D15149C0B24118897847
:103BC0005429EAD14E49C0B24118C9785029E4D1EC
:103BD0004B49C0B2411809794129DED14849C0B2E8
:103BE000411849794329D8D14549C0B2411889794A
:103BF0005429D2D14249C0B24118C9794929CCD1FE
:103C00003F49C0B24118097A4F29C6D13C49C0B2D8
:103C10004118497A4E29C0D13949C0B24118897A30
:103C20003A29BAD13649C0B24118C97A3029B4D13B
:103C30003349C0B24118097B2C29AED13049C0B2FA
:103C40004118497B3229A8D12D49C0B24118897B3E
:103C50003029A2D12A49C0B24118C97B30299CD150
:103C60002749C0B24118097C2C2996D1012000E0D7
:103C7000002032BD80B54FF400711F48FFF728F9CE
:103C80000220FFF797F94FF400711B48FFF722F964
:103C90001E20FFF78FF9FFF7B5FD002801D1FFF7D0
:103CA0001FFD6420FFF758F9FFF754FE002801D1EB
:103CB000FFF716FD6420FFF74FF9FFF7A3FE00287A
:103CC00001D1FFF70DFD01BD80B592B2C9B2FFF77A
:103CD000E6FE0220FFF76EF9FFF73FFF0420FFF733
:103CE00069F901BD0F480649C1F898000E4804491A
:103CF000C1F89C00704700000004024000440040EE
:103D000080020020EC4E0008FC4E00080C4F00081A
:103D1000884E0008C44E0008884D0008084E000870
:103D2000D84E0008753C0008C93C000830B585B085
:103D300004000D000020002000210021A889002897
:103D4000208A30F44050E98808432082A089254920
:103D50000840A9882A8911436A8911430843A08130
:103D6000A08A30F44070A9890843A08200A8FFF718
:103D700019FB1B48844201D1039800E00298A189F5
:103D8000090406D51921484329684900B0FBF1F11F
:103D900005E01921484329688900B0FBF1F164204E
:103DA000B1FBF0F000010209642303FB1211A289A8
:103DB000120408D5C90032316422B1FBF2F111F0CE
:103DC0000701084307E0090132316422B1FBF2F137
:103DD00011F00F010843208105B030BD0000000044
:103DE00000380140F3E9FFFFC9B2002904D08189FE
:103DF00051F40051818104E081894DF6FF72114038
:103E000081817047C905C90D818070478088C005D0
:103E1000C00D704730B4002300240024002589B26F
:103E200040F66A13994205000800C0B24309DBB2AC
:103E300089B211F01F04012010FA04F4012B01D102
:103E40000C3504E0022B01D1103500E01435D2B25C
:103E5000002A03D028682043286002E02868A04395
:103E6000286030BC7047002289B2B1F5007F00881D
:103E7000084201D0012200E000221000C0B27047C9
:103E800010B4002200230022002289B240F66A12F8
:103E900091420A00D2B25209D2B289B211F01F0384
:103EA000012414FA03F3012A02D18289134006E0A7
:103EB000022A02D1028A134001E0828A134089B2A9
:103EC0000A0A92B2012111FA02F200880240002B84
:103ED00003D0002A01D0012200E000221000C0B26D
:103EE00010BC70470022002289B240F66A1291424B
:103EF00089B20A0A012111FA02F292B2D143018079
:103F00007047000062F30F2262F31F42401810F066
:103F1000030308D0C91A1FD3DB0748BF00F8012DDF
:103F200028BF20F8022D130030B41446154610396E
:103F300028BF20E93C00FAD8490728BF20E90C0037
:103F400048BF40F8042D890028BF20F8022D48BF43
:103F500000F8012D30BC7047C91818BF00F8012DBA
:103F6000CB0728BF00F8012D704700000EB400B544
:103F700082B003A90091024600AB012103487844B6
:103F80000A30FCF7B7F806BC5DF810FB150F00000F
:103F900010B584B040211220FEF757F800F0A3F8C6
:103FA000002803D09548406980473FE000F04CF876
:103FB000934981F81C0100F04CF89149A1F81E01C9
:103FC00000F08CF88E4981F820018D4890F820117E
:103FD0008C48FEF7C2FC8A4890F80E01002803D1F5
:103FE0000120874981F8F000864887498968884719
:103FF000002803D18148006A804717E08148007A91
:1040000001280FD104208DF80B007D4890F8202165
:104010007C4900AC2000FDF7E9F900A807C87B4BFC
:104020005B68984777487549C96888471FBD80B560
:1040300008211220FEF709F80120714981F8F000EB
:104040006E480068804701BD80B51920FEF714F85E
:1040500002BD10B500246A4890F81C0100060AD57C
:10406000674890F91C01C043401C801010F03F04C9
:1040700064B2644204E0624890F91C01C0F3850414
:104080001A20FDF7F9FF64B2002C15D55C49D1F870
:10409000F4105F4A914207D300B210EB201064B2D3
:1040A00020189D3800B218E000B210EB201064B266
:1040B0002018A43800B210E05149D1F8F410544A45
:1040C000914205D300B210EB20109D3800B204E0FD
:1040D00000B210EB2010A43800B210BD80B5132040
:1040E000FDF7CAFF02BD80B500201220FDF7C4FF16
:1040F000C0B280060ED520211220FDF7A6FF404851
:1041000090F80E01002803D101203D4981F8F0000C
:10411000012000E0002002BD80B50820FFF7C7FAAB
:1041200000280ED0364890F8F000032804D0052867
:1041300004D1FFF72DFF01E0FFF779FF0820FFF71B
:10414000C1FA01BD80B51020FFF7B1FA002802D0F6
:104150001020FFF7B7FA01BD80B5002040F22551CD
:104160002C48FFF78DFE002820D040F22551294829
:10417000FFF7B8FE2748FFF749FEC0B27E2805D1F9
:104180000021254A11700121244A11762449224A2E
:104190001278505420480078401C1F4908701E486F
:1041A00000780B2802D100201B49087001BD80B5A2
:1041B000002040F225511B48FFF762FE00281CD06A
:1041C00040F225511748FFF78DFE1648FFF71EFEF7
:1041D0001549154A92F896205054134890F89600C5
:1041E000401C114981F896000F4890F896009628D7
:1041F00003D100200C4981F8960001BDB84D00089C
:104200005C010020180400203C4F00081C4F0008EF
:1042100041DD4A1F003801404B040020B00300205C
:10422000EC03002000440040800200207047FEE7BD
:10423000FEE7FEE7FEE770477047704770470000F3
:1042400038B500240FE0002089490C2202FB04113C
:10425000C8720B21002286480C2303FB04052800AA
:10426000FFF750FE641C052CEDDB0020814908603F
:104270000020814908600B210022804C2000FFF7BC
:1042800041FE00207D49C87231BD17B581B0784824
:10429000794909680C2202FB0100C07A00281FD16D
:1042A0009DF80F007249744A12680C2303FB021137
:1042B000C8720B2201A96E486F4B1B680C2404FBCB
:1042C00003042000FDF792F86B480068401C0521AC
:1042D000B0FBF1F201FB120067490860002002E028
:1042E000FFF7AEFF012004B010BD00200021002028
:1042F00009E05F4AC0B20C2303FB0022D27A002AF5
:1043000000D1491C401CC0B20528F2DBC9B2052906
:1043100001D1012000E00020704780B55449554A82
:1043200012680C2303FB0211C97A00291CD05049E2
:10433000504A12680C2303FB02110C22FDF756F8B9
:1043400000204B494B4A12680C2303FB0211C87230
:1043500048480068401C0521B0FBF1F201FB120047
:104360004449086000200EE042490968491C0522C2
:10437000B1FBF2F302FB13113E4A11603F490C22DC
:10438000FDF734F8022002BDE0B500200021002234
:1043900000A8FFF7C2FF9DF80B00012809D064D3E5
:1043A000032808D006D305280BD005D3062824D02F
:1043B0005BE05AE059E058E000A831494968884775
:1043C00053E09DF800009DF80110090451EA0060D7
:1043D0009DF8021050EA01209DF8031008439DF853
:1043E00004109DF805209DF8063053EA022292B28F
:1043F000C9B2244B1B68984737E02348006850F047
:104400000800214908602148006830F008001F4971
:1044100008609DF800009DF80110090451EA006051
:104420009DF8021050EA01209DF8031008439DF802
:1044300004109DF805209DF8063053EA022292B23E
:10444000C9B2134BD3F89C3098470F48006850F01E
:1044500008000D4908600D48006850F008000B493D
:10446000086040211220FDF7F0FD9DF80B000EBD05
:10447000700300203C040020400400200C040020B5
:104480003C4F0008B0030020140401400004014028
:104490008002002080B5FEF70FFE0FF2A5107649CE
:1044A000086076487649744AC2E9040101BD70B5D6
:1044B00004000D00002600260CE0217889B2714826
:1044C000FFF7A0FC641C40216E48FFF7CCFC0028DD
:1044D000F9D0761CB6B2ADB2AE42EED370BD2DE9C6
:1044E000F04105000E00170000245FF000087E2058
:1044F0006549E4B26054641C00206349E4B260542E
:10450000641C15206049E4B26054641C10205E49AC
:10451000E4B26054641C01205B49E4B26054641C42
:10452000554AD2E90401382200F0B2F85649E4B203
:104530006054641C504AD2E90401302200F0A8F80B
:104540005149E4B26054641C4B4AD2E90401282268
:1045500000F09EF84C49E4B26054641C464AD2E92B
:1045600004014948E4B22154641C434AD2E90401DD
:10457000000E4549E4B26054641C3F4AD2E904018C
:10458000000C4149E4B26054641C3B4AD2E9040186
:1045900080B2000A3C49E4B26054641C364AD2E955
:1045A00004013949E4B26054641CFF203649E4B286
:1045B0006054641CFE203449E4B26054641C002042
:1045C0003149E4B26054641C00202F49E4B26054C5
:1045D000641C280E2C49E4B26054641C280C2A493F
:1045E000E4B26054641C280A2749E4B26054641C95
:1045F0002548E4B22554641C2348E4B22654641CC4
:10460000BFB2380A2049E4B26054641C1E48E4B2C8
:104610002754641C032005E01B49C0B2415C11EB28
:104620000808401CC0B2E4B2A042F5D3D8F1FF00A4
:104630001549E4B26054641C2000C0B2BDE8F081AA
:10464000F8B504000D001600002000200A49087685
:10465000142100220D4F3800FFF754FC320092B2B3
:104660002900C9B22000FFF73AFFC0B2010089B2A9
:104670000548FFF71CFFF1BDB0030020039EB540C5
:1046800000A2130000380140D0030020EC030020FA
:10469000D2B2203A22BF21FA02F000217047203224
:1046A000D141D04048409140D1404840704700003F
:1046B0000EB40099090E0170401C0099090C01709C
:1046C000401C0099090A0170401C00990170401CAF
:1046D0000199090E0170401C0199090C0170401CE0
:1046E0000199090A0170401C01990170401C9DF854
:1046F00008100170401C002101709DF8091009018B
:1047000001700178BDF80A20C2F303221143017041
:10471000401CBDF80A100170401C9DF8091011F0F2
:104720000F01017003B0704780B5020008001179D5
:1047300053791B0453EA0161937951EA0321D27939
:104740001143514A11605149D1F814114E4A516038
:1047500002214D4A11724C49497A11F0F00151F091
:104760000301494A51724849498911F47041474A45
:1047700092F818211143444A518143490EC9FFF769
:1047800097FF01BD70B586B0060000250024012109
:104790003F48FEF7A1FB30797179090451EA0060C6
:1047A000B17950EA0120F17908433A490860707AFA
:1047B000C0B20509707AB17A51EA00200405240DCF
:1047C000EDB22800012802D0022803D004E03148CD
:1047D000848001E02F48847103A93000FFF7A4FF13
:1047E0000B2103A82C4A126A90472B48806B804704
:1047F0000028FAD164202849C96A884706208DF824
:104800000B0030798DF8000070798DF80100B079D7
:104810008DF80200F0798DF803008DF80450A4B2F1
:10482000200A8DF805008DF8064000A807C81B4B2C
:104830005B68984706B070BD01784278120452EA6E
:104840000161827851EA0221C07808431449086066
:10485000134800680D49D1F81411884201D1012094
:1048600000E000200E49096811F1010F01D101217A
:1048700000E00021C0B2C9B20843002801D00120E5
:1048800000E0002070470000000400205C010020D0
:104890000004024024040020004D00081C4F0008C2
:1048A000380400207047000000B587B001214FF4A4
:1048B0008040FEF7FAFD072209215648FEF710FB5B
:1048C00007220A215348FEF70BFB02208DF808004F
:1048D00003208DF8090000208DF80A0001208DF8D2
:1048E0000B004FF40070019001A94A48FEF79AFAB4
:1048F0004FF48060019001A94648FEF793FA5FF4F7
:10490000E13003900020ADF810000020ADF8120057
:104910000020ADF814000020ADF818000C20ADF810
:10492000160003A93C48FFF701FA012240F2255185
:104930003948FFF76FFA25208DF8000002208DF826
:10494000010000208DF8020001208DF8030000A86E
:10495000FEF7F0FD01213048FFF746FA07B000BD31
:1049600000B587B001215FF40030FEF7AEFD0722ED
:1049700002212848FEF7B4FA072203212548FEF752
:10498000AFFA02208DF8080003208DF809000020FE
:104990008DF80A0001208DF80B000420019001A978
:1049A0001C48FEF73FFA0820019001A91948FEF7BC
:1049B00039FA5FF4E13003900020ADF810000020D8
:1049C000ADF812000020ADF814000020ADF818007A
:1049D0000C20ADF8160003A91048FFF7A7F9012233
:1049E00040F225510D48FFF715FA26208DF80000FA
:1049F00000208DF8010000208DF8020001208DF8C4
:104A0000030000A8FEF796FD01210448FFF7ECF92A
:104A100007B000BD000002400038014000440040E3
:104A200080B55248006850F4807050490860504882
:104A30000068504908404E4908604C4800684E499B
:104A400008404A4908604948006830F480204749D6
:104A500008604748006830F47D0045490860002040
:104A60004649086000F005F85FF0006044490860BE
:104A700001BD82B000200190002000903B480068FA
:104A800050F48030394908603848006810F400302C
:104A900000900198401C01900098002803D10198D3
:104AA000B0F5A04FF0D131480068800302D5012055
:104AB000009001E0002000900098012853D1314877
:104AC000006850F004002F4908602E48006850F03C
:104AD00002002C4908602B48006850F00100294969
:104AE00008602948006850F08050274908604FF45A
:104AF00000602649086026480068C006FBD41C48B0
:104B000000681B4908601A4800681949086018487D
:104B10000068174908601648006830F47D001449A1
:104B200008601348006850F41100114908600F48EC
:104B3000006850F080700D4908600C4800688001E2
:104B4000FBD50B48006880088000094908600848C8
:104B5000006850F00300064908600548006810F03E
:104B60000C000C28F9D102B0704700000038024058
:104B7000083802400CC0FF88FEFFFEEE0C380240F1
:104B800008ED00E0003C0240243802400070004084
:104B900004700040816807E0026811685368891852
:104BA0005B18C36008320260C2689142F4D04A1CAC
:104BB0008260087870472DE9FF4D00F108010091EF
:104BC00000270268520801EBC2010191B84600219A
:104BD000029103910168490800EBC101406800F0AF
:104BE000010501F10804400804EBC00630E000A80C
:104BF000FFF7D0FF4FFA80FA0AE000980168081822
:104C000000990290496808180390009808300090B5
:104C1000029803998842F0D010F801BB02904745F2
:104C20000CD1B44208BF00F01DF8276805B14F440D
:104C3000606800EB070808344745F2D0BAF1000F6E
:104C400007F801BB0AD51AF1010AE8D14745CED1D0
:104C5000B442CCD1304604B0BDE8F08DBAF1010ABF
:104C6000D6D5F3E7012000F001B8000080B5C046BA
:104C7000C046024A11001820ABBEFBE72600020026
:104C800080B572B6FEF754F9FEF7BDFAFDF7E7FFFF
:104C9000FFF700FCFFF708FEFFF762FEFFF722F8C0
:104CA000FEF7C1FA62B61248006850F008001049D9
:104CB00008601048006830F008000E4908600E488F
:104CC000D0F8980080470A48006850F0080008496A
:104CD00008600848006850F0080006490860402154
:104CE0001220FDF7B2F9054800688047FBE700BFD6
:104CF0001404014000040140800200201C4F000801
:104D0000D722000865230008DB210008FD200008E9
:104D1000252300086F23000829260008DF27000844
:104D2000CF290008712A0008992A0008052B0008DD
:104D3000E72B0008FB220008092C0008592C00086A
:104D4000E52A0008A32A000819E050F8041BCB0745
:104D500044BFA9F101035918121F0023042A41F886
:104D6000043BF9D25FEA827C0B4604D54FF0000C7D
:104D7000A1F800C09B1CD10744BF0021197050F856
:104D8000042B002AE1D17047687474703A2F2F7792
:104D900077772E7869616F7869616D692E737061BC
:104DA00063652F696E666F2F6D616E686F6C652D20
:104DB000706F73742F0000000F2C0008172C000870
:104DC0002D2C00082B2C00082F2C0008312C00085B
:104DD000332C0008352C0008372C0008392C00082B
:104DE00010B5074979441831064C7C44163404E068
:104DF0000A68081D511888470146A142F8D110BD24
:104E00002C000000540000003F61646472657373FD
:104E10003D256426646174615F747970653D256425
:104E200026646174613D25640D0A00001DFFFFFFCB
:104E3000F00200005C010020000000007BFDFFFF8D
:104E40000200000002000000B00100004B00000062
:104E5000000000205C01000000F00BF8002801D0E9
:104E6000FFF7BEFF0020C046C046FFF709FF00F075
:104E700002F80120704700F001B8000007463846EC
:104E8000FFF7F4FEFBE7000041542B485454505008
:104E90004152413D22434944222C2231220D0A0035
:104EA00038B504460D46284600F006F8A84218BF5B
:104EB0000024204632BD00000149FEF739BC00BF86
:104EC000FC00002041542B48545450504152413D65
:104ED0002255524C222C000041542B48545450412E
:104EE0004354494F4E3D300D0A00000041542B53AE
:104EF000415042523D302C310D0A000041542B5399
:104F0000415042523D312C310D0A000041542B4892
:104F1000545450494E49540D0A000000894300087A
:104F20008B420008EB4200084142000801488047DC
:104F300001480047214A0008494F0008A5480008D9
:104F40008547000839480008C046C046C046C046EC
:104F5000FFF782FFFFF7FEBFFFF7FEBFFFF7FEBFC1
:104F6000FFF7FEBFFFF7FEBFFFF7FEBFFFF7FEBF75
:104F7000FFF7FEBFFFF7FEBFFFF7FEBFFFF7FEBF65
:104F8000FFF7FEBFFFF7FEBFFFF7FEBFFFF7FEBF55
:104F9000FFF7FEBFFFF7FEBFFFF7FEBFFFF7FEBF45
:104FA000FFF7FEBFFFF7FEBFFFF7FEBFFFF7FEBF35
:104FB000FFF7FEBFFFF7FEBFFFF7FEBFFFF7FEBF25
:104FC000FFF7FEBFFFF7FEBFFFF7FEBFFFF7FEBF15
:104FD000FFF7FEBFFFF7FEBFFFF7FEBFFFF7FEBF05
:104FE000FFF7FEBFFFF7FEBFFFF7FEBFFFF7FEBFF5
:104FF000FFF7FEBFFFF7FEBFE400F8FFDC00FAFF9B
:105000008100D1001F020401012003002070030071
:10501000202003002020030020200300203901006D
:105020002020010020DC001401020304010203041B
:1050300006070809030406080C10182030FC0002BB
:0350400048E8013C
:0400000508004F4957
:00000001FF
